{
  "_format": "hh-sol-artifact-1",
  "contractName": "MemoryGameRewards",
  "sourceName": "contracts/MemoryGame.sol",
  "abi": [
    {
      "inputs": [],
      "stateMutability": "nonpayable",
      "type": "constructor"
    },
    {
      "inputs": [
        {
          "internalType": "address",
          "name": "target",
          "type": "address"
        }
      ],
      "name": "AddressEmptyCode",
      "type": "error"
    },
    {
      "inputs": [
        {
          "internalType": "address",
          "name": "account",
          "type": "address"
        }
      ],
      "name": "AddressInsufficientBalance",
      "type": "error"
    },
    {
      "inputs": [],
      "name": "FailedInnerCall",
      "type": "error"
    },
    {
      "inputs": [
        {
          "internalType": "address",
          "name": "token",
          "type": "address"
        }
      ],
      "name": "SafeERC20FailedOperation",
      "type": "error"
    },
    {
      "anonymous": false,
      "inputs": [
        {
          "indexed": false,
          "internalType": "uint256",
          "name": "newLimit",
          "type": "uint256"
        }
      ],
      "name": "DailyLimitUpdated",
      "type": "event"
    },
    {
      "anonymous": false,
      "inputs": [
        {
          "indexed": false,
          "internalType": "uint256",
          "name": "newAmount",
          "type": "uint256"
        }
      ],
      "name": "RewardAmountUpdated",
      "type": "event"
    },
    {
      "anonymous": false,
      "inputs": [
        {
          "indexed": true,
          "internalType": "address",
          "name": "user",
          "type": "address"
        },
        {
          "indexed": false,
          "internalType": "uint256",
          "name": "amount",
          "type": "uint256"
        }
      ],
      "name": "RewardClaimed",
      "type": "event"
    },
    {
      "anonymous": false,
      "inputs": [
        {
          "indexed": true,
          "internalType": "address",
          "name": "tokenAddress",
          "type": "address"
        }
      ],
      "name": "RewardTokenSet",
      "type": "event"
    },
    {
      "anonymous": false,
      "inputs": [
        {
          "indexed": true,
          "internalType": "address",
          "name": "sender",
          "type": "address"
        },
        {
          "indexed": false,
          "internalType": "uint256",
          "name": "amount",
          "type": "uint256"
        }
      ],
      "name": "TokensDeposited",
      "type": "event"
    },
    {
      "anonymous": false,
      "inputs": [
        {
          "indexed": true,
          "internalType": "address",
          "name": "receiver",
          "type": "address"
        },
        {
          "indexed": false,
          "internalType": "uint256",
          "name": "amount",
          "type": "uint256"
        }
      ],
      "name": "TokensWithdrawn",
      "type": "event"
    },
    {
      "inputs": [],
      "name": "DAY_IN_SECONDS",
      "outputs": [
        {
          "internalType": "uint256",
          "name": "",
          "type": "uint256"
        }
      ],
      "stateMutability": "view",
      "type": "function"
    },
    {
      "inputs": [],
      "name": "MAX_DAILY_CLAIMS",
      "outputs": [
        {
          "internalType": "uint256",
          "name": "",
          "type": "uint256"
        }
      ],
      "stateMutability": "view",
      "type": "function"
    },
    {
      "inputs": [],
      "name": "REWARD_AMOUNT",
      "outputs": [
        {
          "internalType": "uint256",
          "name": "",
          "type": "uint256"
        }
      ],
      "stateMutability": "view",
      "type": "function"
    },
    {
      "inputs": [],
      "name": "claimReward",
      "outputs": [],
      "stateMutability": "nonpayable",
      "type": "function"
    },
    {
      "inputs": [
        {
          "internalType": "uint256",
          "name": "_amount",
          "type": "uint256"
        }
      ],
      "name": "depositTokens",
      "outputs": [],
      "stateMutability": "nonpayable",
      "type": "function"
    },
    {
      "inputs": [
        {
          "internalType": "address",
          "name": "_user",
          "type": "address"
        }
      ],
      "name": "getRemainingClaims",
      "outputs": [
        {
          "internalType": "uint256",
          "name": "",
          "type": "uint256"
        }
      ],
      "stateMutability": "view",
      "type": "function"
    },
    {
      "inputs": [],
      "name": "liskToken",
      "outputs": [
        {
          "internalType": "contract IERC20",
          "name": "",
          "type": "address"
        }
      ],
      "stateMutability": "view",
      "type": "function"
    },
    {
      "inputs": [
        {
          "internalType": "address",
          "name": "_token",
          "type": "address"
        }
      ],
      "name": "setRewardToken",
      "outputs": [],
      "stateMutability": "nonpayable",
      "type": "function"
    },
    {
      "inputs": [
        {
          "internalType": "uint256",
          "name": "_newLimit",
          "type": "uint256"
        }
      ],
      "name": "updateDailyLimit",
      "outputs": [],
      "stateMutability": "nonpayable",
      "type": "function"
    },
    {
      "inputs": [
        {
          "internalType": "uint256",
          "name": "_newAmount",
          "type": "uint256"
        }
      ],
      "name": "updateRewardAmount",
      "outputs": [],
      "stateMutability": "nonpayable",
      "type": "function"
    },
    {
      "inputs": [
        {
          "internalType": "address",
          "name": "",
          "type": "address"
        }
      ],
      "name": "userClaims",
      "outputs": [
        {
          "internalType": "uint256",
          "name": "lastClaimTimestamp",
          "type": "uint256"
        },
        {
          "internalType": "uint256",
          "name": "claimCount",
          "type": "uint256"
        }
      ],
      "stateMutability": "view",
      "type": "function"
    },
    {
      "inputs": [
        {
          "internalType": "uint256",
          "name": "_amount",
          "type": "uint256"
        }
      ],
      "name": "withdrawTokens",
      "outputs": [],
      "stateMutability": "nonpayable",
      "type": "function"
    }
  ],
  "bytecode": "0x6080604052348015600f57600080fd5b50336000806101000a81548173ffffffffffffffffffffffffffffffffffffffff021916908373ffffffffffffffffffffffffffffffffffffffff16021790555061180b8061005f6000396000f3fe608060405234801561001057600080fd5b50600436106100b45760003560e01c80639478c8b3116100715780639478c8b314610167578063b88a802f14610197578063cf849442146101a1578063dd49756e146101bf578063f0a3563c146101db578063f8175d781461020c576100b4565b806310ef08cc146100b957806315c2ba14146100d7578063315a095d146100f35780635fdc62811461010f5780636d61fc071461012d5780638aee81271461014b575b600080fd5b6100c1610228565b6040516100ce9190611067565b60405180910390f35b6100f160048036038101906100ec91906110bd565b61024e565b005b61010d600480360381019061010891906110bd565b610359565b005b6101176105a6565b60405161012491906110f9565b60405180910390f35b6101356105ad565b60405161014291906110f9565b60405180910390f35b61016560048036038101906101609190611152565b6105b2565b005b610181600480360381019061017c9190611152565b6106a8565b60405161018e91906110f9565b60405180910390f35b61019f610747565b005b6101a961095d565b6040516101b691906110f9565b60405180910390f35b6101d960048036038101906101d491906110bd565b610968565b005b6101f560048036038101906101f09190611152565b610b6a565b60405161020392919061117f565b60405180910390f35b610226600480360381019061022191906110bd565b610b8e565b005b600160009054906101000a900473ffffffffffffffffffffffffffffffffffffffff1681565b60008054906101000a900473ffffffffffffffffffffffffffffffffffffffff1673ffffffffffffffffffffffffffffffffffffffff163373ffffffffffffffffffffffffffffffffffffffff16146102dc576040517f08c379a00000000000000000000000000000000000000000000000000000000081526004016102d390611205565b60405180910390fd5b6000811161031f576040517f08c379a000000000000000000000000000000000000000000000000000000000815260040161031690611271565b60405180910390fd5b7f9639dea65e74b72b1b86ccf3e4f9b6d23b88d2aad2f103d0b3afe394e67edade8160405161034e91906110f9565b60405180910390a150565b60008054906101000a900473ffffffffffffffffffffffffffffffffffffffff1673ffffffffffffffffffffffffffffffffffffffff163373ffffffffffffffffffffffffffffffffffffffff16146103e7576040517f08c379a00000000000000000000000000000000000000000000000000000000081526004016103de90611205565b60405180910390fd5b6000811161042a576040517f08c379a0000000000000000000000000000000000000000000000000000000008152600401610421906112dd565b60405180910390fd5b80600160009054906101000a900473ffffffffffffffffffffffffffffffffffffffff1673ffffffffffffffffffffffffffffffffffffffff166370a08231306040518263ffffffff1660e01b8152600401610486919061130c565b602060405180830381865afa1580156104a3573d6000803e3d6000fd5b505050506040513d601f19601f820116820180604052508101906104c7919061133c565b1015610508576040517f08c379a00000000000000000000000000000000000000000000000000000000081526004016104ff906113b5565b60405180910390fd5b6105553382600160009054906101000a900473ffffffffffffffffffffffffffffffffffffffff1673ffffffffffffffffffffffffffffffffffffffff16610c999092919063ffffffff16565b3373ffffffffffffffffffffffffffffffffffffffff167f6352c5382c4a4578e712449ca65e83cdb392d045dfcf1cad9615189db2da244b8260405161059b91906110f9565b60405180910390a250565b6201518081565b600381565b600073ffffffffffffffffffffffffffffffffffffffff168173ffffffffffffffffffffffffffffffffffffffff1603610621576040517f08c379a000000000000000000000000000000000000000000000000000000000815260040161061890611421565b60405180910390fd5b80600160006101000a81548173ffffffffffffffffffffffffffffffffffffffff021916908373ffffffffffffffffffffffffffffffffffffffff1602179055508073ffffffffffffffffffffffffffffffffffffffff167f2d6b04df9b7d358407d1a014f1114b064add34c19d63d395db155a7e533e967a60405160405180910390a250565b600080600260008473ffffffffffffffffffffffffffffffffffffffff1673ffffffffffffffffffffffffffffffffffffffff168152602001908152602001600020905060004290506201518082600001546107049190611470565b811061071557600392505050610742565b600382600101541061072c57600092505050610742565b8160010154600361073d91906114a4565b925050505b919050565b600073ffffffffffffffffffffffffffffffffffffffff16600160009054906101000a900473ffffffffffffffffffffffffffffffffffffffff1673ffffffffffffffffffffffffffffffffffffffff16036107d8576040517f08c379a00000000000000000000000000000000000000000000000000000000081526004016107cf90611524565b60405180910390fd5b6000600260003373ffffffffffffffffffffffffffffffffffffffff1673ffffffffffffffffffffffffffffffffffffffff168152602001908152602001600020905060004290506201518082600001546108339190611470565b811061084d57600082600101819055508082600001819055505b6003826001015410610894576040517f08c379a000000000000000000000000000000000000000000000000000000000815260040161088b90611590565b60405180910390fd5b60018260010160008282546108a99190611470565b925050819055506109043366b1a2bc2ec50000600160009054906101000a900473ffffffffffffffffffffffffffffffffffffffff1673ffffffffffffffffffffffffffffffffffffffff16610c999092919063ffffffff16565b3373ffffffffffffffffffffffffffffffffffffffff167f106f923f993c2149d49b4255ff723acafa1f2d94393f561d3eda32ae348f724166b1a2bc2ec5000060405161095191906110f9565b60405180910390a25050565b66b1a2bc2ec5000081565b60008054906101000a900473ffffffffffffffffffffffffffffffffffffffff1673ffffffffffffffffffffffffffffffffffffffff163373ffffffffffffffffffffffffffffffffffffffff16146109f6576040517f08c379a00000000000000000000000000000000000000000000000000000000081526004016109ed90611205565b60405180910390fd5b60008111610a39576040517f08c379a0000000000000000000000000000000000000000000000000000000008152600401610a30906115fc565b60405180910390fd5b600073ffffffffffffffffffffffffffffffffffffffff16600160009054906101000a900473ffffffffffffffffffffffffffffffffffffffff1673ffffffffffffffffffffffffffffffffffffffff1603610aca576040517f08c379a0000000000000000000000000000000000000000000000000000000008152600401610ac190611524565b60405180910390fd5b610b19333083600160009054906101000a900473ffffffffffffffffffffffffffffffffffffffff1673ffffffffffffffffffffffffffffffffffffffff16610d18909392919063ffffffff16565b3373ffffffffffffffffffffffffffffffffffffffff167f59062170a285eb80e8c6b8ced60428442a51910635005233fc4ce084a475845e82604051610b5f91906110f9565b60405180910390a250565b60026020528060005260406000206000915090508060000154908060010154905082565b60008054906101000a900473ffffffffffffffffffffffffffffffffffffffff1673ffffffffffffffffffffffffffffffffffffffff163373ffffffffffffffffffffffffffffffffffffffff1614610c1c576040517f08c379a0000000000000000000000000000000000000000000000000000000008152600401610c1390611205565b60405180910390fd5b60008111610c5f576040517f08c379a0000000000000000000000000000000000000000000000000000000008152600401610c5690611668565b60405180910390fd5b7f6cd8635c4285386b9de2e59a4c1eaf32ad41f28ae64c308280217d7af51464e081604051610c8e91906110f9565b60405180910390a150565b610d13838473ffffffffffffffffffffffffffffffffffffffff1663a9059cbb8585604051602401610ccc929190611688565b604051602081830303815290604052915060e01b6020820180517bffffffffffffffffffffffffffffffffffffffffffffffffffffffff8381831617835250505050610d9a565b505050565b610d94848573ffffffffffffffffffffffffffffffffffffffff166323b872dd868686604051602401610d4d939291906116b1565b604051602081830303815290604052915060e01b6020820180517bffffffffffffffffffffffffffffffffffffffffffffffffffffffff8381831617835250505050610d9a565b50505050565b6000610dc5828473ffffffffffffffffffffffffffffffffffffffff16610e3190919063ffffffff16565b90506000815114158015610dea575080806020019051810190610de89190611720565b155b15610e2c57826040517f5274afe7000000000000000000000000000000000000000000000000000000008152600401610e23919061130c565b60405180910390fd5b505050565b6060610e3f83836000610e47565b905092915050565b606081471015610e8e57306040517fcd786059000000000000000000000000000000000000000000000000000000008152600401610e85919061130c565b60405180910390fd5b6000808573ffffffffffffffffffffffffffffffffffffffff168486604051610eb791906117be565b60006040518083038185875af1925050503d8060008114610ef4576040519150601f19603f3d011682016040523d82523d6000602084013e610ef9565b606091505b5091509150610f09868383610f14565b925050509392505050565b606082610f2957610f2482610fa3565b610f9b565b60008251148015610f51575060008473ffffffffffffffffffffffffffffffffffffffff163b145b15610f9357836040517f9996b315000000000000000000000000000000000000000000000000000000008152600401610f8a919061130c565b60405180910390fd5b819050610f9c565b5b9392505050565b600081511115610fb65780518082602001fd5b6040517f1425ea4200000000000000000000000000000000000000000000000000000000815260040160405180910390fd5b600073ffffffffffffffffffffffffffffffffffffffff82169050919050565b6000819050919050565b600061102d61102861102384610fe8565b611008565b610fe8565b9050919050565b600061103f82611012565b9050919050565b600061105182611034565b9050919050565b61106181611046565b82525050565b600060208201905061107c6000830184611058565b92915050565b600080fd5b6000819050919050565b61109a81611087565b81146110a557600080fd5b50565b6000813590506110b781611091565b92915050565b6000602082840312156110d3576110d2611082565b5b60006110e1848285016110a8565b91505092915050565b6110f381611087565b82525050565b600060208201905061110e60008301846110ea565b92915050565b600061111f82610fe8565b9050919050565b61112f81611114565b811461113a57600080fd5b50565b60008135905061114c81611126565b92915050565b60006020828403121561116857611167611082565b5b60006111768482850161113d565b91505092915050565b600060408201905061119460008301856110ea565b6111a160208301846110ea565b9392505050565b600082825260208201905092915050565b7f4f6e6c79204f776e657200000000000000000000000000000000000000000000600082015250565b60006111ef600a836111a8565b91506111fa826111b9565b602082019050919050565b6000602082019050818103600083015261121e816111e2565b9050919050565b7f52657761726420616d6f756e74206d75737420626520706f7369746976650000600082015250565b600061125b601e836111a8565b915061126682611225565b602082019050919050565b6000602082019050818103600083015261128a8161124e565b9050919050565b7f4d757374207769746864726177206120706f73697469766520616d6f756e7400600082015250565b60006112c7601f836111a8565b91506112d282611291565b602082019050919050565b600060208201905081810360008301526112f6816112ba565b9050919050565b61130681611114565b82525050565b600060208201905061132160008301846112fd565b92915050565b60008151905061133681611091565b92915050565b60006020828403121561135257611351611082565b5b600061136084828501611327565b91505092915050565b7f496e73756666696369656e742062616c616e6365000000000000000000000000600082015250565b600061139f6014836111a8565b91506113aa82611369565b602082019050919050565b600060208201905081810360008301526113ce81611392565b9050919050565b7f496e76616c696420746f6b656e20616464726573730000000000000000000000600082015250565b600061140b6015836111a8565b9150611416826113d5565b602082019050919050565b6000602082019050818103600083015261143a816113fe565b9050919050565b7f4e487b7100000000000000000000000000000000000000000000000000000000600052601160045260246000fd5b600061147b82611087565b915061148683611087565b925082820190508082111561149e5761149d611441565b5b92915050565b60006114af82611087565b91506114ba83611087565b92508282039050818111156114d2576114d1611441565b5b92915050565b7f52657761726420746f6b656e206e6f7420736574000000000000000000000000600082015250565b600061150e6014836111a8565b9150611519826114d8565b602082019050919050565b6000602082019050818103600083015261153d81611501565b9050919050565b7f4461696c7920636c61696d206c696d6974207265616368656400000000000000600082015250565b600061157a6019836111a8565b915061158582611544565b602082019050919050565b600060208201905081810360008301526115a98161156d565b9050919050565b7f4d757374206465706f736974206120706f73697469766520616d6f756e740000600082015250565b60006115e6601e836111a8565b91506115f1826115b0565b602082019050919050565b60006020820190508181036000830152611615816115d9565b9050919050565b7f4c696d6974206d7573742062652067726561746572207468616e207a65726f00600082015250565b6000611652601f836111a8565b915061165d8261161c565b602082019050919050565b6000602082019050818103600083015261168181611645565b9050919050565b600060408201905061169d60008301856112fd565b6116aa60208301846110ea565b9392505050565b60006060820190506116c660008301866112fd565b6116d360208301856112fd565b6116e060408301846110ea565b949350505050565b60008115159050919050565b6116fd816116e8565b811461170857600080fd5b50565b60008151905061171a816116f4565b92915050565b60006020828403121561173657611735611082565b5b60006117448482850161170b565b91505092915050565b600081519050919050565b600081905092915050565b60005b83811015611781578082015181840152602081019050611766565b60008484015250505050565b60006117988261174d565b6117a28185611758565b93506117b2818560208601611763565b80840191505092915050565b60006117ca828461178d565b91508190509291505056fea2646970667358221220f1eead64c62ebb42ee373235b831c5230f2d5d5fa6df41f2208586326beff38264736f6c634300081a0033",
  "linkReferences": {},
  "deployedLinkReferences": {}
}